202602040060000300000000000000000007000000000000000000079900000000020461019367ALTAMIRANO VALENTINO          000000255000000000000000000000000000000000000000000000000000000000000000000000000000000000000000000000000000000000000000PES00010000001000000000000000020260214
202602050060000300000000000000000008000000000000000000089900000000027328940243ZEBALLOS NOELIA YAMIL         000000180000000000000000000000000000000000000000000000000000000000000000000000000000000000000000000000000000000000000000PES00010000001000000000000000020260215
202602060060000300000000000000000009000000000000000000099900000000020467475941VAZQUEZ ALEXIS RUBEN          000000165000000000000000000000000000000000000000000000000000000000000000000000000000000000000000000000000000000000000000PES00010000001000000000000000020260216
202602090060000300000000000000000010000000000000000000109900000000000095083105LOPEZ BENITEZ BARTOLOME       000000195000000000000000000000000000000000000000000000000000000000000000000000000000000000000000000000000000000000000000PES00010000001000000000000000020260219
202602100080000300000000000000000002000000000000000000029900000000020313307671OLIVA SERGIO MAURICIO         000000130000000000000000000000000000000000000000000000000000000000000000000000000000000000000000000000000000000000000000PES00010000001000000000000000020260220
202602100080000300000000000000000003000000000000000000039900000000020366716107ROMERO DANILO LUIS            000000130000000000000000000000000000000000000000000000000000000000000000000000000000000000000000000000000000000000000000PES00010000001000000000000000020260220
202602100060000300000000000000000013000000000000000000139900000000020313307671OLIVA SERGIO MAURICIO         000000130000000000000000000000000000000000000000000000000000000000000000000000000000000000000000000000000000000000000000PES00010000001000000000000000020260220
202602100060000300000000000000000014000000000000000000149900000000020366716107ROMERO DANILO LUIS            000000130000000000000000000000000000000000000000000000000000000000000000000000000000000000000000000000000000000000000000PES00010000001000000000000000020260220
202602100060000300000000000000000015000000000000000000159900000000020351413043PADILLA HORACIO MAXIMILIANO   000000130000000000000000000000000000000000000000000000000000000000000000000000000000000000000000000000000000000000000000PES00010000001000000000000000020260220
202602100060000300000000000000000016000000000000000000169900000000020220115306CORONEL GUSTAVO ALBERTO       000000130000000000000000000000000000000000000000000000000000000000000000000000000000000000000000000000000000000000000000PES00010000001000000000000000020260220
202602100060000300000000000000000017000000000000000000179900000000020350810154CHAPARRO RUBEN DARIO          000000130000000000000000000000000000000000000000000000000000000000000000000000000000000000000000000000000000000000000000PES00010000001000000000000000020260220
202602100060000300000000000000000018000000000000000000189900000000023301625804CRESPIN IVANA SOLEDAD         000000130000000000000000000000000000000000000000000000000000000000000000000000000000000000000000000000000000000000000000PES00010000001000000000000000020260220
202602110060000300000000000000000019000000000000000000199900000000020928753965VILLANUEVA MADERA JORGE MARIO 000000130000000000000000000000000000000000000000000000000000000000000000000000000000000000000000000000000000000000000000PES00010000001000000000000000020260221
202602110060000300000000000000000020000000000000000000209900000000020344817627SCHMIT NUÑEZ ELIO JONATAN     000000130000000000000000000000000000000000000000000000000000000000000000000000000000000000000000000000000000000000000000PES00010000001000000000000000020260221
202602110060000300000000000000000021000000000000000000219900000000020408393338SANTA CRUZ MATIAS JAVIER      000000130000000000000000000000000000000000000000000000000000000000000000000000000000000000000000000000000000000000000000PES00010000001000000000000000020260221
202602110060000300000000000000000022000000000000000000229900000000020225929026CARDACI GASTON DANIEL         000000130000000000000000000000000000000000000000000000000000000000000000000000000000000000000000000000000000000000000000PES00010000001000000000000000020260221
202602110060000300000000000000000023000000000000000000239900000000027445606370CABANILLA GUADALUPE           000000265000000000000000000000000000000000000000000000000000000000000000000000000000000000000000000000000000000000000000PES00010000001000000000000000020260221
202602130060000300000000000000000024000000000000000000249900000000020171364842LAPALMA DARDO VICTOR          000000175000000000000000000000000000000000000000000000000000000000000000000000000000000000000000000000000000000000000000PES00010000001000000000000000020260223
202602130060000300000000000000000025000000000000000000259900000000027397660775MARTINEZ FLORENCIA MELANI     000000240000000000000000000000000000000000000000000000000000000000000000000000000000000000000000000000000000000000000000PES00010000001000000000000000020260223
202602130060000300000000000000000026000000000000000000269900000000020299624049ACOSTA CLEMENTE MARTIN        000000245000000000000000000000000000000000000000000000000000000000000000000000000000000000000000000000000000000000000000PES00010000001000000000000000020260223
202602140060000300000000000000000027000000000000000000279900000000020255251865TORRES CARLOS OSMAR           000000250000000000000000000000000000000000000000000000000000000000000000000000000000000000000000000000000000000000000000PES00010000001000000000000000020260224
