202603020060000300000000000000000028000000000000000000288600000000027398133299GALVES VERONICA EDITH         000000112925688000000000000000000000000000000000000000000000000000000000000000000000000000000000000000000000000000000000PES00010000001000000000000000020260312
202603020060000300000000000000000029000000000000000000299600000000000092645211GONZALEZ MARCO ANTONIO        000000130000000000000000000000000000000000000000000000000000000000000000000000000000000000000000000000000000000000000000PES00010000001000000000000000020260312
202603020060000300000000000000000030000000000000000000308600000000020410237114MAGUNA EDUARDO GABRIEL        000000130000000000000000000000000000000000000000000000000000000000000000000000000000000000000000000000000000000000000000PES00010000001000000000000000020260312
202603020060000300000000000000000031000000000000000000318600000000020302828459AGUILAR SILVIO ARIEL          000000130000000000000000000000000000000000000000000000000000000000000000000000000000000000000000000000000000000000000000PES00010000001000000000000000020260312
202603020060000300000000000000000032000000000000000000328600000000027267119789KLAGES VALERIA SAMANTA        000000130000000000000000000000000000000000000000000000000000000000000000000000000000000000000000000000000000000000000000PES00010000001000000000000000020260312
202603020060000300000000000000000033000000000000000000338600000000020329750982MESA DIEGO NICOLAS            000000130000000000000000000000000000000000000000000000000000000000000000000000000000000000000000000000000000000000000000PES00010000001000000000000000020260312
202603020060000300000000000000000034000000000000000000348600000000020328183197RILO MIGUEL MATIAS            000000130000000000000000000000000000000000000000000000000000000000000000000000000000000000000000000000000000000000000000PES00010000001000000000000000020260312
202603020060000300000000000000000035000000000000000000358600000000020430136233BRANDAN AXEL  FERNANDO EZEQUIE000000130000000000000000000000000000000000000000000000000000000000000000000000000000000000000000000000000000000000000000PES00010000001000000000000000020260312
202603030060000300000000000000000036000000000000000000368600000000020292761083CACERES DANIEL ALEJANDRO      000000150000000000000000000000000000000000000000000000000000000000000000000000000000000000000000000000000000000000000000PES00010000001000000000000000020260314
202603040060000300000000000000000037000000000000000000378600000000020959730076QUINTERO CAICEDO CARLOS EDUARD000000130000000000000000000000000000000000000000000000000000000000000000000000000000000000000000000000000000000000000000PES00010000001000000000000000020260314
202603110060000300000000000000000038000000000000000000388600000000020254145301ZAPATA LUIS EDUARDO           000000160000000000000000000000000000000000000000000000000000000000000000000000000000000000000000000000000000000000000000PES00010000001000000000000000020260321
202603130060000300000000000000000039000000000000000000398600000000020348355490AMARILLA JOSE EMILIANO        000000130000000000000000000000000000000000000000000000000000000000000000000000000000000000000000000000000000000000000000PES00010000001000000000000000020260323
202603140060000300000000000000000040000000000000000000408600000000020223871780IRIBARREN CLAUDIO CESAR       000000130000000000000000000000000000000000000000000000000000000000000000000000000000000000000000000000000000000000000000PES00010000001000000000000000020260324
202603140060000300000000000000000041000000000000000000418600000000023281383639HUGO VICTOR GASTON            000000130000000000000000000000000000000000000000000000000000000000000000000000000000000000000000000000000000000000000000PES00010000001000000000000000020260324
202603140060000300000000000000000042000000000000000000428600000000027306980152DE OLIVERA BEATRIZ LIDIA      000000150000000000000000000000000000000000000000000000000000000000000000000000000000000000000000000000000000000000000000PES00010000001000000000000000020260324
202603160060000300000000000000000043000000000000000000438600000000027955675776FRETES VERON ALBA LETICIA     000000150000000000000000000000000000000000000000000000000000000000000000000000000000000000000000000000000000000000000000PES00010000001000000000000000020260326
202603160060000300000000000000000044000000000000000000448600000000020432605109DEMARIA LEONEL                000000150000000000000000000000000000000000000000000000000000000000000000000000000000000000000000000000000000000000000000PES00010000001000000000000000020260326
202603170060000300000000000000000045000000000000000000458600000000023309608194SALINAS LUISA GABRIELA        000000130000000000000000000000000000000000000000000000000000000000000000000000000000000000000000000000000000000000000000PES00010000001000000000000000020260327
202603170060000300000000000000000046000000000000000000468600000000027371973066ROMERO LUIS EMANUEL           000000130000000000000000000000000000000000000000000000000000000000000000000000000000000000000000000000000000000000000000PES00010000001000000000000000020260327
202603170060000300000000000000000047000000000000000000478600000000023281312669COPPOLA DIEGO RUBEN           000000130000000000000000000000000000000000000000000000000000000000000000000000000000000000000000000000000000000000000000PES00010000001000000000000000020260327
202603170060000300000000000000000048000000000000000000488600000000027381566663SALCEDO ANGELA SILVANA        000000150000000000000000000000000000000000000000000000000000000000000000000000000000000000000000000000000000000000000000PES00010000001000000000000000020260327
202603180060000300000000000000000049000000000000000000498600000000027183704929MORATELO MARIA SILVINA        000000145000000000000000000000000000000000000000000000000000000000000000000000000000000000000000000000000000000000000000PES00010000001000000000000000020260328
202603180060000300000000000000000050000000000000000000508600000000027290976516MORATELO MARINA GISELA        000000170000000000000000000000000000000000000000000000000000000000000000000000000000000000000000000000000000000000000000PES00010000001000000000000000020260328
202603250060000300000000000000000051000000000000000000518600000000020224545208MORINIGO CARLOS ELISEO        000000135000000000000000000000000000000000000000000000000000000000000000000000000000000000000000000000000000000000000000PES00010000001000000000000000020260404
202603260060000300000000000000000052000000000000000000528600000000020312910315BRAVO PABLO SANTIAGO          000000135000000000000000000000000000000000000000000000000000000000000000000000000000000000000000000000000000000000000000PES00010000001000000000000000020260405
